:020000040000FA
:06000000EAEF07F0120018
:0600080004EF08F01200F5
:02000E000000F0
:050010000000010000EA
:060018000CEF08F01200DD
:02001E000100DF
:0C0020000E00000090000000070000002F
:04002C000DEC05F0E2
:100030006A6A686A5AEC05F06D8C6E6A04EC05F029
:100040006D9CDF6A1EEC05F003E2F4EC04F0FAD7D5
:10005000160E706E68A602D06896FCD70001736B0E
:10006000786B796B7A6B6D98080E6B6F040E6C6F02
:10007000616B606BE552D1EF04F00DEC05F000010F
:1000800060510BE16D6A696A5AEC05F06DB602D0F9
:100090006D86FCD70001010E606F600508E16DBA46
:1000A00006D0686A696A69806988020E606F685064
:1000B000040B05E06950040B02E0689488D86DB227
:1000C00049D06850010B12E06950010B0FE0AEDF20
:1000D0000001040E606F0401200E026F040E036F16
:1000E000080E016F006B8C0E001368906850100BA7
:1000F00005E06950100B02E062D868986850400B28
:1001000009E06950400B06E061EC05F0730EC4ECA9
:1001100004F0689C6850200B04E06950200B01E05B
:100120003CD86850020B0BE06950020B08E061EC10
:1001300005F0E6687F0EE66EA9EC05F06A6A040E2B
:100140000001E76E6019E8AE02D0E73402D0E75054
:10015000605D02E2A19A1ED069A61BD0DF6A040E80
:10016000DF5C17E268A615D06CCF80F06896780E39
:100170000001801502E136D80AD0000EE66EE66A6C
:10018000800EE66E000EE66E720EC4EC04F0DF2AFE
:10019000E6D7A19AE552D1EF04F070A00ED0D8ECCA
:1001A00004F0EF50800808E1EADBEF50840804E136
:1001B000D8EC04F08C0EEF6E7090689A120069848F
:1001C00068986D8226EC05F0750EC4EF04F026ECFD
:1001D00005F0740ED9DB6D92699468A402D068941E
:1001E000FCD712000DEC05F0FD0E000180153EE17C
:1001F0007E0E8015E8407F0B040DF3CF63F0F4CF43
:1002000064F0000E6327040E642363C065F064C0CD
:1002100066F06575CDDBEF503C0BE842E8420D0817
:1002200023E1C6DB90EC05F0EECF0BF0EFCF0CF046
:10023000280E0B1817E1040E0C1814E1C1EC05F0A0
:10024000DF6A1EEC05F00EE2DF5043EC05F0DF50F4
:10025000EA6A200FE96E040EEA22E552E750EF6EDB
:10026000DF2AEFD70AD807D01AD805D0FD0E80159F
:10027000040801E122D8E55294D381DBEF50800BD2
:1002800002E07DDBEF6A00016F6B706B746B756B66
:10029000736B64D8DBDB030E77DBDFEF02F0020E5B
:1002A0000001705D02E16CEF03F034D80001815170
:1002B00002E195EF05F0816B1200AFDB60DBEF50E0
:1002C000400B01E0010EDF6E00016B75080E605DF2
:1002D00009E122C46EFF6E50000802E2100E01D048
:1002E000040E606F700513E1C5EC05F0A2D9020E93
:1002F00000016F5D03E143DB840E07D0DF5003E1B3
:100300003EDBC80E02D03BDB880EEF6E01D002D878
:10031000E55247D342DB0001706B31DBEF6A040E1C
:100320006B190B6E6CC00CF0DE6E6CC0DDFF30DB49
:10033000EF6A78AF0CD07B517C1107E005D07CC010
:10034000FAFF00017B51F96EFADF0001789F020E7F
:10035000E15C02E2E16AE552E16E23D3040120513F
:10036000600BE842E842E842E842E842000901E066
:10037000120021510C0A45E00B0A3FE00C0A31E063
:10038000010A22E00B0A1EE0020A1CE0030A18E040
:10039000080A10E0010A0CE00F0A08E0030A01E075
:1003A00012000001738F080E606F120062EF02F0FE
:1003B000C8EF03F00001610E716F000E726F0CD078
:1003C000A3EF02F002EF02F024510001716F726B93
:1003D000620E7127000E72237381010E746F738F8A
:1003E00012000001738F04012451EA6A620FE96E62
:1003F000000EEA2222C4EFFF120028DB020EC4EF37
:1004000004F0120096DB040EE1260401220510E13F
:1004100020511F0B00090CE10001738F030E040132
:10042000215D04E10001010E7F6F02D000017F6BAE
:100430000401225140E120511F0B02083CE12451EC
:100440000F0B000938E00001738F040124BF05D0B1
:10045000B4DA670EE926000E04D0AFDA6B0EE92697
:10046000000E05DB030E215D03E192DA840E22D03B
:1004700024510F0B0C6A700F0B6E0F0E0C22020E24
:100480000BC0DBFF030E0CC0DBFF020EDBCFE9FF6E
:10049000030EDBCFEAFFEF9024AF06D079DAEF6AE4
:1004A000DF7476DA400E06D073DA880EEF6EDF74F2
:1004B0006FDAC80EEF6E040EE15C02E2E16AE5520B
:1004C000E16E6FD2800E0401205D3CE10001C00EA0
:1004D000736F04012351030A1EE0010A09E0030AB5
:1004E0002FE100011E0E716F100E726F120E22D0DE
:1004F000EFDAD20EF626100ECEDA020E0001F76AFF
:100500007125F66E7251F7220900F5CF74F00A00DA
:10051000F5CF75F01200030E225D0FE2D9DAD40E8A
:10052000F626100EB8DA71C0F6FF72C0F7FF0800A9
:10053000F5500001746F756B12000001736B1200AF
:100540000001736B120029DA0401286B296B20511A
:100550001F0B020A0EE0030A09E0010A1FE1000175
:10056000738F7F051BE10401288318D00001738F6E
:1005700015D00001738F040124BF05D01EDA670E69
:10058000E926000E04D019DA6B0EE926000E6FDAA8
:10059000FFD9EF50040B02E0010E286F000173AF8A
:1005A00007D0280E716F040E726F7381020E746F84
:1005B000020EE15C02E2E16AE552E16EF2D16D9871
:1005C000000173BF08D078AF02D090DA2AD0ADDA3C
:1005D000D6D9840E27D078BF2BD0040120AF24D0E9
:1005E000000174510401265D000175510401275971
:1005F00004E226C474F027C475F01BD80001010E74
:10060000706FC7DA800EEF6E816BD2D9EE52080E92
:10061000EF6EB7DACDD9840EEF6E010E816FB5DAC9
:10062000AED9C80EEF6E1200000160DAC80EEF6E90
:100630001200B3D90001080E745D000E75590DE269
:1006400074C0DEFF75C0DDFF6F5102E1010E03D003
:100650006F0506E1020E6F6F03D0080EDE6EDD6AD5
:100660008ED9EF928CD9EF908AD9010EDB50EF1220
:1006700086D9EE52DFCFEFFF000EDB50745F010E24
:10068000DB50755B280E7D6F040E7E6F73B10FD04B
:1006900026DA1BE071C0F6FF72C0F7FF712B000E67
:1006A00072230800F550BCD9F3E2DB06F1D717DA64
:1006B0000CE071C0E9FF72C0EAFF712B000E7223DB
:1006C000EF50AED9F4E2DB06F2D7020EE15C02E2B3
:1006D000E16AE552E16E65D160D96AD9EE52EFCF99
:1006E000DFFFDFCF0BF00B500001795D000E7A5970
:1006F00003E279C0DFFF09D0DF500B6E0C6AE850CF
:10070000795D796F0C507A597A6F010EDB6ADF5090
:10071000F36E010EDBCFF4FFF350F45C10E2010E38
:10072000DB50B1D976C0E9FF77C0EAFF762B000E27
:100730007723E552E750EF6E010EDB2AE8D7000E73
:10074000D8807955000E7A550DE20DD98BD930D964
:10075000EF50400B03E110DAC80E02D00DDA880E1C
:10076000EF6E0FD016DA840EEF6E7B517C1107E02E
:1007700005D07CC0FAFF00017B51F96EFADF000161
:10078000789F020EE15C02E2E16AE552E16E09D176
:1007900044D90001738F38D9DF6A50D902E224D9D5
:1007A000FCD76D8C010EE66EE66AE66A620EE66EB6
:1007B000000EC7D96D9C0001080E6B6F040E6C6FA4
:1007C000000E636F040E646F63C065F0666F22C431
:1007D00061F0615103E1100E606F0BD0200E606F6D
:1007E000010EE66EE66A610EE66E000EE66E010E22
:1007F000CBD8E552D6D0D1D8000EDE6E040EDD6E19
:10080000E4D8040DF3500B6E0C6A020E0F0B05E0DA
:10081000D8900C320B32E806FBE1D8900B360C3640
:10082000D8900B360C36D9CFE9FFDACFEAFF0B5060
:10083000EE260C50ED22ACD8EF9EFD0EDB5002E10F
:10084000CED801D097D8EA22DECFEEFFDDCFEDFF84
:100850009FD8EF9C9DD8040EE926000EEA22EF8C6B
:10086000020EE15C02E2E16AE552E16E9AD095D8AF
:10087000FE0EDB500C6A700F0B6E0F0EFED888D880
:10088000FD0EDBCFEFFFDBA402D0E66A0CD9FD0E34
:10089000DBA203D0010EE66E06D9020EE15C02E295
:1008A000E16AE552E16E7DD078D8FE0EDB5005E1BD
:1008B0003CD965D8840EEF6E05D087D823D985D86A
:1008C000010F20D9020EE15C02E2E16AE552E16E1D
:1008D00068D063D8FD0EDB5002E04CD801D07FD841
:1008E000C6D856D81DD9FB0EDBCFEEFFFC0EDBCFF2
:1008F000EDFF4ED8EE52FA0EDBCFEFFF400E48D898
:10090000E850EF16880E44D8E850EF12FD0EDB5089
:1009100002E030D801D063D8EA22EF74DECF0BF0CA
:10092000DDCF0CF00BC0F3FF0CC0F4FF020EE15C56
:1009300002E2E16AE552E16E34D0FBD86DA812D034
:10094000FDD8400EEE16EE6AEE6AEE6AF7D8EE7C3F
:1009500011D8EA22EF74400E0B6EF0D80B50EF1650
:10096000EDD8EF7C1ED008D9EE52080EEF6E04D9F8
:1009700090EF05F0F5D86B0EE926000E12006BC063
:10098000E9FF6CC0EAFF1200E66EE66AA9EF05F027
:10099000DECFE9FFDDCFEAFF1200CBD8020EE12661
:1009A0001200E552E7CFD9FF1200E1D8BCEF05F005
:1009B00063C0E9FF64C0EAFF120024510F0BE96E27
:1009C000EA6AD890E936EA361200FD0EDB50E824D8
:1009D0000D6EFE0EDB50040DF3500D241200C0D836
:1009E000670EE926000E1200DF50040DF3CFE9FF79
:1009F000F4CFEAFF000EE926040EEA22EE6AEE6A60
:100A0000EE6AEE6ADF2A1200010EE66EE66AE66A18
:100A1000710EE66E0F0EA1EF05F08BD8E6521200B4
:100A2000E66E7DC0E9FF7EC0EAFF7D2B000E7E23CF
:100A3000E552E750EF6EDF06010E1200DF500B6E3D
:100A40000C6A080E0B5C000E0C581200000EE66ECD
:100A5000E66AE66EE66A1200EA22EE50EFCFEAFF9F
:100A6000E96E1200280EEE6E040EED6E1200EA2200
:100A7000EECFDEFFEDCFDDFF12000C220BC0DEFF5C
:100A80000CC0DDFF1200EA6A280FE96E040EEA22AC
:100A9000EF50E66E1200F7220900F5CF71F00A0060
:100AA000F5CF72F01200FE0EDBCFE6FFA4DEE552BA
:100AB000E5521200160E6F6E9F0E6B6E7B0E696E06
:100AC0001200010EE66EE66A000EE66EE66A12009D
:100AD0002251F66EF76AD890F636F7361200D9CF63
:100AE000E9FFDACFEAFFEE50ED101200020E706F50
:100AF00046DFEE52EF6A43DFC80EEF6E34DFB2DF3F
:100B0000BCEF05F0040DF3CF0BF0F4CF0CF0000EAA
:100B10000B26040EB2DF840E3BDFE850EF1212000A
:100B2000020EE926000EEA22120033D88C0EEF6E78
:100B30001200D9CFE6FFE1CFD9FF12001BDF2CEF67
:100B400005F0E66ED0EC07F00B6E050EE15E0B5083
:100B50001200EFEC06F00B6E060EE15E0B50120079
:100B6000FE0EEA6ADB34FE0BEA36E96E1200200E56
:100B7000EE6E040EED6E120065C0E9FF66C0EAFF7E
:100B8000120016DFCDDFB7EF05F0F9DEC9DF32EF77
:080B900005F0E9DED5EF04F0E9
:080B98007BD91100D8CFE4FF66
:100BA000E0CFE4FFE46E74D9E550E5CFE0FFE5CF98
:100BB000D8FF100004D83DEC00F013D8FCD70F0E7E
:100BC000C11202D816EF00F0F00E8C16951693881D
:100BD000938A0001906B916B926B936B010E946FF3
:100BE00012005DD90001945101E09BD8200E000154
:100BF000E76E6019E8AE02D0E73402D0E750605DDE
:100C00006AE36D50020B67E100019051911102E11E
:100C1000000E08D090C0E9FF91C0EAFFEF50800BB2
:100C200001E0010E000957E105010051370A2CE0EF
:100C3000B60A16E0010A4EE10001946B8C50010BDC
:100C40000B6E8C50020B01E0010E0B5C03E18C700B
:100C50008C7240D08CA002D08C823CD08C923AD046
:100C6000810E406F81AA03D0010E416F01D0416B0C
:100C700000019251931102E1000E03D017D901E057
:100C8000010E000927E119D000019251931102E1F0
:100C9000000E03D00BD901E0010E00091BE10DD9B4
:100CA00024D8F3CFDEFFF4CFDDFF0501370E406F10
:100CB000DFCF41F5010EDBCF42F5400EE66E400E70
:100CC000E66E050EE66E010EE66EFED8F3CF92F0EC
:100CD000F4CF93F0CFD8020EE15C02E2E16AE55274
:100CE000E16EE552E7CFD9FF1200D9D8E6D8C2822B
:100CF000C2B2FED7C350DF6E010EC4CFDBFFDECF22
:100D00000BF0DDCF0CF00BC0F3FF0CC0F4FF020EB4
:100D1000E15C02E2E16AE552E16EE552E7CFD9FF1C
:100D2000120000019551961104E1100E956F270EE7
:100D3000966F9507000E965B6DA207D095519611A0
:100D40002EE18C708CB013D027D00001605102E1ED
:100D50008C9022D0600502E18C8009D0020E605D8B
:100D600002E18C8019D0040E605D03E18C908C82CE
:100D70001200100E605D06E10001955196110FE121
:100D80008C700AD0200E605D0AE100019551961129
:100D900006E18C708CA002D08C9212008C82120022
:100DA00012001200120012006CEF07F012001E0E6B
:100DB000E66E010EE66E37EC04F0E552E5523AEFCE
:100DC00007F06D840001080E996F070E9A6F99075E
:100DD000000E9A5B99519A11FAE16D941200D9CFE5
:100DE000E6FFE1CFD9FFFD0EDBCF06F0FE0EDBCF35
:100DF00007F0720E061801E1075033E0E8680618A4
:100E000002E17F0E07182BE0740E061801E107506F
:100E100024E0750E061801E107501DE0730E061858
:100E200001E1075016E0030E061801E107500FE03C
:100E3000020E061801E1075008E0010E061801E154
:100E4000075001E010D0B3DF0FD0B0DF0DD0ACDF22
:100E50000BD0A8DF09D0A4DF07D0A3DF05D0A3DF24
:100E600003D0000001D000D0010E00D0E552E7CF42
:100E7000D9FF1200400EE66E000EE66E050EE66E1D
:100E8000E66A010E21D8F3CF90F0F4CF91F0120072
:100E9000DACFE4FFE652E552E5CFDAFF1200D9CF10
:100EA000E6FFE1CFD9FF020EE126120092C0E9FF72
:100EB00093C0EAFFEF50800B12009280010EC26EC9
:100EC0003C0EC06EC08E1200E66E69EC04F00B6E34
:080ED000050EE15E0B5012005B
:080ED800040120511F0B010869
:100EE00001E01200245101E01200060E215D1EE116
:100EF0002351230A1BE0010A0CE0030A17E1000159
:100F0000610514E10001420E716F100E726F090E3F
:100F100009D0000161050AE10001B50E716F100EE4
:100F2000726F1D0E746F756BC00E736F04012051CC
:100F3000600BE842E842E842E842E842010801E08A
:100F4000120021510B0A26E0080A19E0090A11E0F3
:100F5000080A05E00B0A23E0080A21E0120000015C
:100F6000970E716F000E726F010E746F756BC10E6C
:100F70000FD00001800E736F23C497F012000001A0
:100F8000980E716F000E726F010E746F756B810E8B
:100F9000736F12000001800E736F22C498F012006C
:100FA000FE0EE3CFE9FFFF0EE3CFEAFFE9CFF3FF49
:100FB000EACFF4FFFB0EE35003E1FC0EE35009E03F
:100FC000FB0EE30602E2FC0EE306FD0EE350EE6EBE
:040FD000F1D7120043
:0C0FD40013EE00F023EE00F0F86A0A9C17
:100FE0006DEC08F003EC08F0DAEC05F0FBD712002A
:0E0FF00000EE00F00F0EEE6AEA62FDD712006E
:06100000EAEF07F0120008
:021006001200D6
:06100800CCEF05F0120020
:06101800CEEF05F012000E
:02101E001201BD
:10102000000200000008D8043F0002000102000195
:1010300009022900010100C0320904000002030076
:101040000000092111010001221D00070581034054
:1010500000010705010340000104030904200350B7
:1010600000790072006F0045006C00650063007439
:101070000072006F002E0063006F006D0038035097
:1010800000790072006F0045006C00650063007419
:101090000072006F002E0063006F006D002000489A
:1010A000004900440020004500780061006D007098
:1010B000006C0065000600FF0901A101190129402B
:1010C000150026FF007508954081001901294091FF
:0A10D00000C0301059105D107D10B3
:0610DA001E0EF66E000E72
:1010E000F76E000EF86E00010900F5508B6F0900D5
:1010F000F5508C6F03E18B6701D03DD00900F550AE
:10110000866F0900F550876F0900F550886F090058
:101110000900F550E96E0900F550EA6E0900090072
:101120000900F550896F0900F5508A6F0900090020
:10113000F6CF8DF0F7CF8EF0F8CF8FF086C0F6FFA8
:1011400087C0F7FF88C0F8FF0001895302E18A5386
:1011500007E00900F550EE6E8907F8E28A07F9D733
:101160008DC0F6FF8EC0F7FF8FC0F8FF00018B0720
:08117000000E8C5BBFD71200DA
:020000040030CA
:0100000024DB
:010001000EF0
:010002003FBE
:010003001EDE
:0100050001F9
:010006008178
:010008000FE8
:01000900C036
:01000A000FE6
:01000B00E014
:01000C000FE4
:01000D0040B2
:00000001FF
