:020000040000FA
:06000000CAEF00F012003F
:020006000000F8
:08000800D9CFE6FFE1CFD9FFDB
:10001000020EE126DE6ADD6ADECF00F0DDCF01F000
:10002000FD0EDBCF02F0FE0EDBCF03F00150031814
:10003000E8AE02D0033404D00250005C03500158F3
:1000400005E2DF2A010EE8E3DB2AE6D7020EE15CD7
:1000500002E2E16AE552E16EE552E7CFD9FF120014
:10006000D392D390959095926F94E668A3EC00F0AC
:10007000E552E668A3EC00F0E552550EE66EA3ECFF
:1000800000F0E55283808392E668A3EC00F0E5522D
:10009000E668A3EC00F0E552550EE66EA3EC00F026
:0800A000E55283908382E1D751
:0800A800060EF66E000EF76E65
:1000B000000EF86E00010900F550656F0900F5505B
:1000C000666F03E1656701D03DD00900F550606FB0
:1000D0000900F550616F0900F550626F09000900D1
:1000E000F550E96E0900F550EA6E090009000900B3
:1000F000F550636F0900F550646F09000900F6CFF1
:1001000067F0F7CF68F0F8CF69F060C0F6FF61C024
:10011000F7FF62C0F8FF0001635302E1645307E098
:100120000900F550EE6E6307F8E26407F9D767C07F
:10013000F6FF68C0F7FF69C0F8FF00016507000E11
:06014000665BBFD7120050
:0A014600FF0EE350076EEF0E01D02C
:10015000F30EE76EE72EAAEF00F00C0E066EE76ACC
:10016000E72EB0EF00F0062EAFEF00F0072EA8EF5D
:0401700000F0120089
:0C017400000EF36E00EE00F0080E01D843
:100180001200EA6002D0EE6AFCD7F350E960120078
:04019000EE6AFCD740
:0C01940013EE00F023EE00F0F86A059C6A
:1001A00054EC00F0D8EC00F030EC00F0FBD712007B
:0201B00012003B
:020000040030CA
:0100000011EE
:0100010002FC
:010002003FBE
:010003001EDE
:0100050001F9
:010006008178
:010008000FE8
:01000900C036
:01000A000FE6
:01000B00E014
:01000C000FE4
:01000D0040B2
:00000001FF
